:1000000005308A00422D0000FF00030E8301A1008D
:100010000A08A0008A010408A2007708A300780853
:10002000A4007908A5007A08A600831383120B1E8A
:100030001B288B182C28220884002308F70024088A
:10004000F8002508F9002608FA0020088A00210E89
:100050008300FF0E7F0E09008A110A12BF28831643
:1000600006148312061C3928A71839280230F80014
:10007000BE28B51035088316870083128710130831
:10008000273093008316140C031C43288312130893
:10009000BE001308703093008316140C031C4D2807
:1000A0008312B510350883168700831287143E1B10
:1000B0005E28A7185E280330F800BE28B510350862
:1000C000831687008312871013086130930083160C
:1000D000140C031C68288312130893018316140C54
:1000E000031C6F2883121308AB00130893018316B7
:1000F000140C031C782883121308B400BC013C08BC
:10010000073C031C92282C303C07840083131308FF
:1001100093018316140C031C8A2883121308800091
:10012000BC0A7F28B5103508831687008312871410
:10013000B51035088316870083128710130817300F
:1001400093008316140C031CA22883121308930136
:100150008316140C031CA92883121308BD00B510C4
:10016000350883168700831287143D18BB28A7140F
:100170000130F800BE28A7100030F80008002F203A
:100180007808BB00BB080319C7283B0BD0282F20D9
:100190007808BB00BB080319C7283B0BD028C72829
:1001A0008B108A110A121B280B138B138B1BD5285B
:1001B0000B16831601130614C03083128B048A11A8
:1001C0000A12622D83168711071687128312941262
:1001D000B512350883168700831235163508831645
:1001E00087008312B51135088316870020308312EB
:1001F0009400C0308316940083128A110A12632D72
:1002000083168710061407118312351135088316DB
:10021000870083120711B5103508831687008312F3
:1002200087101308303093008316140C031C152913
:1002300083121308FF3093008316140C031C1D292E
:1002400083121308C23093008316140C031C252953
:1002500083121308C23093008316140C031C2D293B
:1002600083121308C23093008316140C031C352923
:1002700083121308C23093008316140C031C3D290B
:100280008312B51035088316870083128714B510C2
:100290003508831687008312871013082A309300CD
:1002A0008316140C031C512983121308FF3093008A
:1002B0008316140C031C592983121308C2309300AF
:1002C0008316140C031C612983121308C230930097
:1002D0008316140C031C692983121308C23093007F
:1002E0008316140C031C712983121308C230930067
:1002F0008316140C031C79298312B5103508831654
:10030000870083128714B51035088316870083127F
:10031000871013082B3093008316140C031C8D29AF
:100320008312380893008316140C031C942983123B
:100330001308C23093008316140C031C9C298312EB
:100340001308C23093008316140C031CA4298312D3
:100350001308C23093008316140C031CAC298312BB
:100360001308C23093008316140C031CB4298312A3
:10037000B51035088316870083128714B510350829
:10038000831687008312871013082C30930083167E
:10039000140C031CC8298312130893018316140C30
:1003A000031CCF298312B5103508831687008312EA
:1003B0008714B51035088316870083128710130839
:1003C000213093008316140C031CE32983121308B5
:1003D000073093008316140C031CEB298312B5100D
:1003E00035088316870083128714B51035088316E5
:1003F0008700831287101308223093008316140C91
:10040000031CFF2983121308073093008316140C72
:10041000031C072A8312B510350883168700831240
:100420008714B510350883168700831287101308C8
:10043000233093008316140C031C1B2A8312130809
:10044000033093008316140C031C232A8312B51067
:1004500035088316870083128714B5103508831674
:100460008700831287101308243093008316140C1E
:10047000031C372A831213080A3093008316140CC6
:10048000031C3F2A8312B510350883168700831298
:100490008714B51035088316870083128710130858
:1004A000253093008316140C031C532A831237083B
:1004B00093008316140C031C5A2A8312B5103508B6
:1004C0008316870083128714B510350883168700BA
:1004D000831287101308263093008316140C031C14
:1004E0006E2A83121308073093008316140C031C22
:1004F000762A8312B5103508831687008312871475
:10050000B51035088316870083128710130827302B
:1005100093008316140C031C8A2A8312130870306C
:1005200093008316140C031C922A8312B51035080D
:100530008316870083128714B51035088316870049
:10054000831287101308313093008316140C031C98
:10055000A62A83121308013093008316140C031C7F
:10056000AE2A8312B51035088316870083128714CC
:10057000B5103508831687008312871013083230B0
:1005800093008316140C031CC22A831213080A302A
:1005900093008316140C031CCA2A8312B510350865
:1005A0008316870083128714B510350883168700D9
:1005B000831287101308333093008316140C031C26
:1005C000DE2A831213080A3093008316140C031CCE
:1005D000E62A8312B5103508831687008312871424
:1005E0008A110A12682D373084008313000803191A
:1005F000072B0130F800F701F70BFC2AF80BFB2A58
:100600004A30F700F70B022B052B800BF92A080064
:10061000351135088316870083120711B510350888
:1006200083168700831287101308203093008316E7
:10063000140C031C182B831213080F30930083161D
:10064000140C031C202B8312B51035088316870069
:10065000831287140230B700F32235113508831650
:100660008700831207153130F700F70B352B382B35
:100670008A110A12692D8B1F3F2B2714402B27103C
:100680000B138B138B1B412B3511350883168700F9
:1006900083120711B510350883168700831287105F
:1006A0001308273093008316140C031C542B831259
:1006B0001308703093008316140C031C5C2B8312F8
:1006C000B51035088316870083128714B5103508D6
:1006D0008316870083128710130822309300831635
:1006E000140C031C702B8312130801309300831623
:1006F000140C031C782B8312B51035088316870061
:1007000083128714B510350883168700831287106B
:100710001308303093008316140C031C8C2B8312A7
:10072000340893008316140C031C932B83121308B4
:10073000C23093008316140C031C9B2B83121308E6
:10074000C23093008316140C031CA32B83121308CE
:10075000C23093008316140C031CAB2B83121308B6
:10076000C23093008316140C031CB32B8312B510F4
:1007700035088316870083128714B5103508831651
:1007800087008312871013082A3093008316140CF5
:10079000031CC72B8312340893008316140C031C0C
:1007A000CE2B83121308C23093008316140C031C43
:1007B000D62B83121308C23093008316140C031C2B
:1007C000DE2B83121308C23093008316140C031C13
:1007D000E62B83121308C23093008316140C031CFB
:1007E000EE2B8312B5103508831687008312871409
:1007F000B5103508831687008312871013080B3055
:1008000093008316140C031C022C8312130893010B
:100810008316140C031C092C83121308B40013084C
:1008200093018316140C031C122C831213089301DA
:100830008316140C031C192C8312130893018316BE
:10084000140C031C202C8312130893018316140C20
:10085000031C272C8312B5103508831687008312DA
:100860008714B51035088316870083128710130884
:10087000A03093008316140C031C3B2C8312AA0A8D
:100880002A0893008316140C031C432C831234088B
:1008900093008316140C031C4A2C8312B7013708EB
:1008A000073C031C622C2C3037078400831300089C
:1008B000B900390893008316140C031C5C2C8312B6
:1008C000B70A4F2CB510350883168700831287149A
:1008D000B51035088316870083128710130820305F
:1008E00093008316140C031C722C831213080E3011
:1008F00093008316140C031C7A2C8312B510350850
:1009000083168700831287143511350883168700F4
:10091000831207150430F700F70B8C2C8F2C351140
:1009200035088316870083120711A901A8018316D1
:1009300006148312061CA72CA80A0319A90A280862
:10094000F43C031DA62C290BA62CA72C972CB51024
:100950003508831687008312871013082730930009
:100960008316140C031CB12C83121308B80013084F
:10097000703093008316140C031CBB2C8312B5102B
:1009800035088316870083128714B510350883163F
:100990008700831287101308223093008316140CEB
:1009A000031CCF2C83121308073093008316140CFA
:1009B000031CD72C8312B5103508831687008312C9
:1009C0008714B51035088316870083128710130823
:1009D000E13093008316140C031CEB2C8312B5102A
:1009E00035088316870083128714B51035088316DF
:1009F0008700831287101308203093008316140C8D
:100A0000031CFF2C831213080F3093008316140C61
:100A1000031C072D8312B510350883168700831237
:100A20008714351135088316870083120715313076
:100A3000F700F70B192D1C2D2808F43C031D2A2D57
:100A4000290B2A2D271C262DC0308B048B10023039
:100A5000F8003F2D381A372DB81E372D271C322DA0
:100A6000C0308B048B100030F8003F2D3F2D271C29
:100A70003B2DC0308B048B100130F8003F2D8A11C4
:100A80000A12752D840183131F308305A710AA0154
:100A9000AB01FF30B50083161F149F141F159F1163
:100AA00007309C0083120317B8010313A801A901A2
:100AB000AC01AD01AE01AF01B001B101B201B301B2
:100AC000B401D428E2284030B7000130B800002932
:100AD000082B0530B700F3223F30831685008312C0
:100AE0000508AC000830B4003B2B7808B600702D28
:020AF0006300A1
:02400E00313F40
:00000001FF
;PIC16F876A
;CRC=A0DD  CREATED="16-nov-12 22:22"
