:1000000003308A003B2B0000FF00030E8301A10098
:100010000A08A0008A010408A2007708A300780853
:10002000A4007908A5007A08A600831383120B1E8A
:100030001B288B182C28220884002308F70024088A
:10004000F8002508F9002608FA0020088A00210E89
:100050008300FF0E7F0E09008A110A12BF28831643
:1000600006148312061C3928A71839280230F80014
:10007000BE28B51035088316870083128710130831
:10008000273093008316140C031C43288312130893
:10009000BB001308703093008316140C031C4D280A
:1000A0008312B510350883168700831287143B1B13
:1000B0005E28A7185E280330F800BE28B510350862
:1000C000831687008312871013086130930083160C
:1000D000140C031C68288312130893018316140C54
:1000E000031C6F2883121308AB00130893018316B7
:1000F000140C031C782883121308B400B9013908C2
:10010000073C031C92282C30390784008313130802
:1001100093018316140C031C8A2883121308800091
:10012000B90A7F28B5103508831687008312871413
:10013000B51035088316870083128710130817300F
:1001400093008316140C031CA22883121308930136
:100150008316140C031CA92883121308BA00B510C7
:10016000350883168700831287143A18BB28A71412
:100170000130F800BE28A7100030F80008002F203A
:100180007808B800B8080319C728380BD2282C08FB
:1001900085002F207808B800B8080319C728380B45
:1001A000D228C7288B108A110A121B280B138B1315
:1001B0008B1BD7280B16831601130614C03083122D
:1001C0008B048A110A12602B831687110716871277
:1001D00083129412B51235088316870083123516E0
:1001E0003508831687008312B511350883168700FA
:1001F000203083129400C0308316940083128A1139
:100200000A12612B83168710061407118312351109
:1002100035088316870083120711B5103508831639
:100220008700831287101308303093008316140C54
:10023000031C172983121308FF3093008316140C34
:10024000031C1F2983121308C23093008316140C59
:10025000031C272983121308C23093008316140C41
:10026000031C2F2983121308C23093008316140C29
:10027000031C372983121308C23093008316140C11
:10028000031C3F298312B51035088316870083129B
:100290008714B5103508831687008312871013085A
:1002A0002A3093008316140C031C5329831213085D
:1002B000FF3093008316140C031C5B298312130870
:1002C000C23093008316140C031C63298312130895
:1002D000C23093008316140C031C6B29831213087D
:1002E000C23093008316140C031C73298312130865
:1002F000C23093008316140C031C7B298312B510A3
:1003000035088316870083128714B51035088316C5
:1003100087008312871013082B3093008316140C68
:10032000031C8F298312370893008316140C031CB7
:10033000962983121308C23093008316140C031CF1
:100340009E2983121308C23093008316140C031CD9
:10035000A62983121308C23093008316140C031CC1
:10036000AE2983121308C23093008316140C031CA9
:10037000B6298312B51035088316870083128714B7
:10038000B5103508831687008312871013082C30A8
:1003900093008316140C031CCA29831213089301BB
:1003A0008316140C031CD1298312B510350883164B
:1003B000870083128714B5103508831687008312CF
:1003C00087101308213093008316140C031CE529B1
:1003D00083121308073093008316140C031CED29B5
:1003E0008312B51035088316870083128714B51061
:1003F0003508831687008312871013082230930074
:100400008316140C031C012A83121308073093006F
:100410008316140C031C092A8312B51035088316A1
:10042000870083128714B51035088316870083125E
:1004300087101308233093008316140C031C1D2A05
:1004400083121308033093008316140C031C252A0F
:100450008312B51035088316870083128714B510F0
:100460003508831687008312871013082430930001
:100470008316140C031C392A831213080A309300C4
:100480008316140C031C412A8312B51035088316F9
:10049000870083128714B5103508831687008312EE
:1004A00087101308253093008316140C031C552A5B
:1004B0008312360893008316140C031C5C2A8312E3
:1004C000B51035088316870083128714B5103508D8
:1004D0008316870083128710130826309300831633
:1004E000140C031C702A8312130807309300831620
:1004F000140C031C782A8312B51035088316870064
:1005000083128714B510350883168700831287106D
:100510001308273093008316140C031C8C2A8312B3
:100520001308703093008316140C031C942A831252
:10053000B51035088316870083128714B510350867
:1005400083168700831287101308313093008316B7
:10055000140C031CA82A831213080130930083167D
:10056000140C031CB02A8312B510350883168700BB
:1005700083128714B51035088316870083128710FD
:100580001308323093008316140C031CC42A831200
:1005900013080A3093008316140C031CCC2A831210
:1005A000B51035088316870083128714B5103508F7
:1005B0008316870083128710130833309300831645
:1005C000140C031CE02A831213080A3093008316CC
:1005D000140C031CE82A8312B51035088316870013
:1005E000831287148A110A12662B35113508831677
:1005F000870083120711B510350883168700831210
:1006000087101308203093008316140C031C052B4D
:10061000831213080F3093008316140C031C0D2B48
:100620008312B510350883168700831287140230B1
:10063000B600363084008313000803192D2B0130D7
:10064000F800F701F70B222BF80B212B4A30F700AB
:10065000F70B282B2B2B800B1F2B351135088316FE
:100660008700831207153130F700F70B352B382B35
:100670008A110A12672B840183131F308305A71088
:10068000AA01AB01FF30B50083161F149F141F157C
:100690009F1107309C0083120317B8010313A801B0
:1006A000A901AC01AD01AE01AF01B001B101B201D0
:1006B000B301B40100308316850083128501D6286A
:1006C000E4284030B6000830B7000229F52A672B2D
:0206D0006300C5
:02400E00313F40
:00000001FF
;PIC16F876A
;CRC=924F  CREATED="16-nov-12 22:22"
